:1000000012C02CC02BC02AC029C028C027C026C0BF
:1000100025C024C023C022C021C020C01FC01EC0D4
:100020001DC01CC01BC011241FBECFE5D4E0DEBF25
:10003000CDBF11E0A0E6B0E0E2EFF8E002C005902D
:100040000D92A43EB107D9F711E0A4EEB1E001C0D2
:100050001D92AA3EB107E1F761D049C4D1CF87E62E
:1000600089B910BC86E880BD88E18AB908955D9B96
:10007000FECF8CB908955F9BFECF8CB10895FC0133
:1000800004C05D9BFECF31968CB980818823C9F76F
:100090000895DF93CF9300D000D00F92CDB7DEB795
:1000A000382F292FFE01319685E0DF011D928A95B8
:1000B000E9F7FE013496832F922F6AE070E0CCD3EB
:1000C000805D8083832F922F6AE070E0C5D3362F46
:1000D000272F3197EC17FD0771F7FE01319604C009
:1000E0005D9BFECF31968CB980818823C9F70F9034
:1000F0000F900F900F900F90CF91DF91089580E4B3
:1001000087B987E886B90895806487B9369A349BA1
:10011000FECF349A24B135B1C90108956F927F9210
:100120008F929F92AF92BF92CF92DF92EF92FF9207
:100130000F931F93DF93CF93CDB7DEB764970FB6BE
:10014000F894DEBF0FBECDBF8FEF87BB18BADE01BC
:100150001196EEEDF1E085E001900D928150E1F70E
:10016000DE011696E9EDF1E085E001900D928150F7
:10017000E1F7DE011B96E4EDF1E085E001900D92E0
:100180008150E1F7DE015096EFECF1E085E001905F
:100190000D928150E1F78E010F5F1F4FF0E98F2E16
:1001A000F1E09F2EE2E06E2E74E9A72E70E0B72EEC
:1001B00063E0762E50E6C52E50E0D52E46E0E42EC4
:1001C000F12CEC0EFD1E31C0F4013197F1F70197CF
:1001D000D9F7F8018081883418F4DF92CF9204C0F7
:1001E000853638F0BF92AF92B5D078BA0F900F90A5
:1001F00001C068BA0F5F1F4F0E151F05B1F430E93B
:10020000832E31E0932E22E0622E91E0A92E91E020
:10021000B92E7724739489ECC82E80E0D82EBBE0E9
:10022000EB2EF12CEC0EFD1E34C080E197E2CCCF1A
:10023000F4013197F1F70197D9F7F80180818834FB
:1002400018F4DF92CF9204C0893738F0BF92AF9292
:1002500081D078BA0F900F9001C068BA0F5F1F4F1E
:100260000E151F05B1F4A0E98A2EA1E09A2EF2E046
:100270006F2EEEE6AE2EE1E0BE2E75E0772E6AE33D
:10028000C62E61E0D62E50E1E52EF12CEC0EFD1EBF
:1002900030C080E197E2CCCFF4013197F1F70197BC
:1002A000D9F7F80180818C3318F4DF92CF9204C023
:1002B000853638F0BF92AF924DD078BA0F900F903C
:1002C00001C068BA0F5F1F4F0E151F0591F440E97A
:1002D000A42E41E0B42E32E0832E23EAC22E21E088
:1002E000D22E9DE0992E85E1E82EF12CEC0EFD1E1C
:1002F00019C080E197E2D0CFF5013197F1F701976E
:10030000D9F7F8018081883438F4DF92CF9222D077
:1003100098BA0F900F9001C088BA0F5F1F4F0E154B
:100320001F0519F080E197E2E7CF64960FB6F894C5
:10033000DEBF0FBECDBFCF91DF911F910F91FF9018
:10034000EF90DF90CF90BF90AF909F908F907F9075
:100350006F900895A0E0B0E0EFEAF1E0A1C2FE01E5
:10036000359661917191AF018091E6019091E7011D
:1003700003D02096E2E0B0C2ABE0B0E0E1ECF1E007
:100380007FC23C012B015A01FC0117821682838136
:1003900081FD03C06FEF7FEFBBC19AE0892E1E0184
:1003A0000894211C311CF3012381F20123FD859166
:1003B00023FF81912F01882309F4A7C1853239F4E5
:1003C00023FD859123FF81912F01853221F4B30113
:1003D00090E0B8D1E8CF982FDD24CC249924FFE118
:1003E000FD15D0F09B3269F09C3228F4903259F020
:1003F000933291F40EC09D3249F0903369F441E09C
:1004000024C052E0D52A84E0D82A28C098E0D92A0E
:1004100025C0E0E1DE2A22C0D7FC29C0892F805305
:100420008A3070F4D6FE05C0989C902C1124980E4A
:1004300015C0C89CC02C1124C80EF0E2DF2A0EC0E3
:100440009E3229F4D6FC61C140E4D42A07C09C3610
:1004500019F450E8D52A02C0983649F4F20123FD78
:10046000959123FF91912F01992309F0B8CF892FFE
:100470008554833018F08052833038F444E050E0E3
:10048000A40EB51E5FE359830FC0933631F0933746
:1004900079F0933509F052C01FC0F501808189833E
:1004A00042E050E0A40EB51E710101E010E011C061
:1004B000F501E080F180D6FC03C06FEF7FEF02C052
:1004C000692D70E042E050E0A40EB51EC7012FD1A7
:1004D0008C015FE7D52213C0F501E080F180D6FCE6
:1004E00003C06FEF7FEF02C0692D70E042E050E083
:1004F000A40EB51EC70110D18C0150E8D52AD3FE39
:1005000006C018C0B30180E290E01CD1CA948C2DC3
:1005100090E008171907B0F30DC0F701D7FC8591DB
:10052000D7FE81917F01B30190E00CD1C110CA9434
:10053000015010400115110581F7E4C0943611F007
:10054000993669F5D7FE08C0F501E080F180028197
:10055000138144E050E00AC0F501808191817C0163
:100560000027F7FC0095102F42E050E0A40EB51EC6
:100570005FE6D52217FF0AC010950095F094E0942D
:10058000E11CF11C011D111D80E8D82A2AE030E091
:10059000A101C801B70102D1F82EF2183FC095376A
:1005A00029F41D2D1F7E2AE030E01DC01D2D197F6E
:1005B0009F3661F0903720F4983509F0A6C00FC03F
:1005C000903739F0983709F0A0C004C028E030E037
:1005D0000AC0106114FD146020E130E004C014FD75
:1005E000166020E132E017FF08C0F50160817181DB
:1005F0008281938144E050E008C0F50180819181BF
:10060000BC0180E090E042E050E0A40EB51EA101E4
:10061000C5D0F82EF2188FE7D82ED122D6FE0BC007
:100620005EEFD522F91438F4D4FE07C0D2FC05C021
:100630008FEED82202C01F2D01C0192DD4FE0DC08F
:10064000FE01EF0DF11D8081803319F499EED9225E
:1006500008C01F5FD2FE05C003C08D2D867809F04B
:100660001F5F0D2DD3FC13C0D0FE0EC01C1510F063
:100670009F2C0AC09F2C9C0C911A1C2D05C0B30105
:1006800080E290E05FD01F5F1C15C8F304C01C150A
:1006900010F4C11A01C0CC2404FF0FC0B30180E3E1
:1006A00090E050D002FF1CC001FD03C088E790E03D
:1006B00002C088E590E0B3010CC0802F867881F0FD
:1006C00001FF02C08BE201C080E2D7FC8DE2B301E2
:1006D00090E038D005C0B30180E390E033D09A9425
:1006E000F914C8F3FA94F101EF0DF11DB301808103
:1006F00090E028D0FF20B1F705C0B30180E290E080
:1007000021D0CA94CC20C9F74ECEF30166817781FF
:10071000CB012B96E2E1D0C0FC0105906150704006
:100720000110D8F7809590958E0F9F1F0895FC01BA
:100730006150704001900110D8F7809590958E0F10
:100740009F1F08950F931F93CF93DF938C01EB01AD
:100750008B8181FF1BC082FF0DC02E813F818C8168
:100760009D812817390764F4E881F9810193F983A1
:10077000E88306C0E885F985802F0995892B31F437
:100780008E819F8101969F838E8302C00FEF1FEFA2
:10079000C801DF91CF911F910F910895FA01AA2707
:1007A000283051F1203181F1E8946F936E7F6E5FB4
:1007B0007F4F8F4F9F4FAF4FB1E03ED0B4E03CD062
:1007C000670F781F891F9A1FA11D680F791F8A1F45
:1007D000911DA11D6A0F711D811D911DA11D20D0AC
:1007E00009F468943F912AE0269F11243019305D66
:1007F0003193DEF6CF010895462F4770405D419357
:10080000B3E00FD0C9F7F6CF462F4F70405D4A33A3
:1008100018F0495D31FD4052419302D0A9F7EACF6B
:10082000B4E0A6959795879577956795BA95C9F79A
:1008300000976105710508959B01AC010A2E06948D
:100840005795479537952795BA95C9F7620F731F46
:10085000841F951FA01D0895AA1BBB1B51E107C053
:10086000AA1FBB1FA617B70710F0A61BB70B881F40
:10087000991F5A95A9F780959095BC01CD010895CF
:100880002F923F924F925F926F927F928F929F92A0
:10089000AF92BF92CF92DF92EF92FF920F931F938E
:1008A000CF93DF93CDB7DEB7CA1BDB0B0FB6F8943F
:1008B000DEBF0FBECDBF09942A88398848885F847F
:1008C0006E847D848C849B84AA84B984C884DF80F0
:1008D000EE80FD800C811B81AA81B981CE0FD11DD4
:1008E0000FB6F894DEBF0FBECDBFED010895F894AA
:0208F000FFCF38
:1008F200486561727420526174652069732056657F
:100902007279206D756368204C6F772C20506C656E
:10091200617365205265706F727420696E20726F08
:100922006F6D2E0048656172742052617465206992
:10093200732056657279206D75636820486967680F
:100942002C20506C65617365205265706F72742043
:10095200696E20726F6F6D2E00426C6F6F64205053
:10096200726573737572652069732056657279209A
:100972006D756368204C6F772C20506C65617365D0
:10098200205265706F727420696E20726F6F6D2EC7
:1009920000426C6F6F6420507265737375726520CC
:1009A20069732056657279206D756368204869679E
:1009B200682C20506C65617365205265706F72748B
:1009C20020696E20726F6F6D2E0050756C736520FA
:1009D200526174652069732056657279206D756362
:1009E20068204C6F772C20506C65617365205265CE
:1009F200706F727420696E20726F6F6D2E00507569
:100A02006C73652052617465206973205665727932
:100A1200206D75636820486967682C20506C656199
:100A22007365205265706F727420696E20726F6FE9
:100A32006D2E0058592069732056657279206D75A4
:100A42006368204C6F772C20506C6561736520526F
:100A520065706F727420696E20726F6F6D2E005018
:100A6200564948415056494841505649487850568F
:040A720049484100AE
:00000001FF
